{
  "address": "0x5FbDB2315678afecb367f032d93F642f64180aa3",
  "abi": [
    {
      "inputs": [],
      "stateMutability": "nonpayable",
      "type": "constructor"
    },
    {
      "anonymous": false,
      "inputs": [
        {
          "indexed": true,
          "internalType": "address",
          "name": "owner",
          "type": "address"
        },
        {
          "indexed": true,
          "internalType": "address",
          "name": "approved",
          "type": "address"
        },
        {
          "indexed": true,
          "internalType": "uint256",
          "name": "tokenId",
          "type": "uint256"
        }
      ],
      "name": "Approval",
      "type": "event"
    },
    {
      "anonymous": false,
      "inputs": [
        {
          "indexed": true,
          "internalType": "address",
          "name": "owner",
          "type": "address"
        },
        {
          "indexed": true,
          "internalType": "address",
          "name": "operator",
          "type": "address"
        },
        {
          "indexed": false,
          "internalType": "bool",
          "name": "approved",
          "type": "bool"
        }
      ],
      "name": "ApprovalForAll",
      "type": "event"
    },
    {
      "anonymous": false,
      "inputs": [
        {
          "indexed": true,
          "internalType": "uint256",
          "name": "tokenId",
          "type": "uint256"
        },
        {
          "indexed": true,
          "internalType": "address",
          "name": "winner",
          "type": "address"
        },
        {
          "indexed": false,
          "internalType": "string",
          "name": "base",
          "type": "string"
        },
        {
          "indexed": false,
          "internalType": "string",
          "name": "response",
          "type": "string"
        }
      ],
      "name": "MintCard",
      "type": "event"
    },
    {
      "anonymous": false,
      "inputs": [
        {
          "indexed": true,
          "internalType": "address",
          "name": "from",
          "type": "address"
        },
        {
          "indexed": true,
          "internalType": "address",
          "name": "to",
          "type": "address"
        },
        {
          "indexed": true,
          "internalType": "uint256",
          "name": "tokenId",
          "type": "uint256"
        }
      ],
      "name": "Transfer",
      "type": "event"
    },
    {
      "inputs": [],
      "name": "_totalSupply",
      "outputs": [
        {
          "internalType": "uint256",
          "name": "",
          "type": "uint256"
        }
      ],
      "stateMutability": "view",
      "type": "function"
    },
    {
      "inputs": [
        {
          "internalType": "address",
          "name": "to",
          "type": "address"
        },
        {
          "internalType": "uint256",
          "name": "tokenId",
          "type": "uint256"
        }
      ],
      "name": "approve",
      "outputs": [],
      "stateMutability": "nonpayable",
      "type": "function"
    },
    {
      "inputs": [
        {
          "internalType": "address",
          "name": "owner",
          "type": "address"
        }
      ],
      "name": "balanceOf",
      "outputs": [
        {
          "internalType": "uint256",
          "name": "",
          "type": "uint256"
        }
      ],
      "stateMutability": "view",
      "type": "function"
    },
    {
      "inputs": [
        {
          "internalType": "uint256",
          "name": "",
          "type": "uint256"
        }
      ],
      "name": "basesPhrases",
      "outputs": [
        {
          "internalType": "string",
          "name": "",
          "type": "string"
        }
      ],
      "stateMutability": "view",
      "type": "function"
    },
    {
      "inputs": [],
      "name": "deployer",
      "outputs": [
        {
          "internalType": "address",
          "name": "",
          "type": "address"
        }
      ],
      "stateMutability": "view",
      "type": "function"
    },
    {
      "inputs": [
        {
          "internalType": "uint256",
          "name": "tokenId",
          "type": "uint256"
        }
      ],
      "name": "getApproved",
      "outputs": [
        {
          "internalType": "address",
          "name": "",
          "type": "address"
        }
      ],
      "stateMutability": "view",
      "type": "function"
    },
    {
      "inputs": [
        {
          "internalType": "uint256",
          "name": "tokenId",
          "type": "uint256"
        }
      ],
      "name": "getBasePhrase",
      "outputs": [
        {
          "internalType": "string",
          "name": "",
          "type": "string"
        }
      ],
      "stateMutability": "view",
      "type": "function"
    },
    {
      "inputs": [],
      "name": "getCurrentRound",
      "outputs": [
        {
          "internalType": "uint256",
          "name": "",
          "type": "uint256"
        }
      ],
      "stateMutability": "view",
      "type": "function"
    },
    {
      "inputs": [
        {
          "internalType": "uint256",
          "name": "tokenId",
          "type": "uint256"
        }
      ],
      "name": "getWinningResponse",
      "outputs": [
        {
          "internalType": "string",
          "name": "",
          "type": "string"
        }
      ],
      "stateMutability": "view",
      "type": "function"
    },
    {
      "inputs": [
        {
          "internalType": "address",
          "name": "owner",
          "type": "address"
        },
        {
          "internalType": "address",
          "name": "operator",
          "type": "address"
        }
      ],
      "name": "isApprovedForAll",
      "outputs": [
        {
          "internalType": "bool",
          "name": "",
          "type": "bool"
        }
      ],
      "stateMutability": "view",
      "type": "function"
    },
    {
      "inputs": [
        {
          "internalType": "uint256",
          "name": "tokenId",
          "type": "uint256"
        }
      ],
      "name": "isAvailableForMint",
      "outputs": [
        {
          "internalType": "bool",
          "name": "",
          "type": "bool"
        }
      ],
      "stateMutability": "view",
      "type": "function"
    },
    {
      "inputs": [
        {
          "internalType": "uint256",
          "name": "tokenId",
          "type": "uint256"
        }
      ],
      "name": "isMinted",
      "outputs": [
        {
          "internalType": "bool",
          "name": "",
          "type": "bool"
        }
      ],
      "stateMutability": "view",
      "type": "function"
    },
    {
      "inputs": [
        {
          "internalType": "uint256",
          "name": "tokenId",
          "type": "uint256"
        },
        {
          "internalType": "string",
          "name": "response",
          "type": "string"
        },
        {
          "internalType": "uint256",
          "name": "votes",
          "type": "uint256"
        },
        {
          "internalType": "bytes",
          "name": "signature",
          "type": "bytes"
        }
      ],
      "name": "mint",
      "outputs": [],
      "stateMutability": "nonpayable",
      "type": "function"
    },
    {
      "inputs": [],
      "name": "name",
      "outputs": [
        {
          "internalType": "string",
          "name": "",
          "type": "string"
        }
      ],
      "stateMutability": "view",
      "type": "function"
    },
    {
      "inputs": [
        {
          "internalType": "uint256",
          "name": "tokenId",
          "type": "uint256"
        }
      ],
      "name": "ownerOf",
      "outputs": [
        {
          "internalType": "address",
          "name": "",
          "type": "address"
        }
      ],
      "stateMutability": "view",
      "type": "function"
    },
    {
      "inputs": [
        {
          "internalType": "uint256",
          "name": "",
          "type": "uint256"
        }
      ],
      "name": "responses",
      "outputs": [
        {
          "internalType": "address",
          "name": "winner",
          "type": "address"
        },
        {
          "internalType": "string",
          "name": "basePhrase",
          "type": "string"
        },
        {
          "internalType": "string",
          "name": "response",
          "type": "string"
        },
        {
          "internalType": "uint256",
          "name": "votes",
          "type": "uint256"
        }
      ],
      "stateMutability": "view",
      "type": "function"
    },
    {
      "inputs": [
        {
          "internalType": "address",
          "name": "from",
          "type": "address"
        },
        {
          "internalType": "address",
          "name": "to",
          "type": "address"
        },
        {
          "internalType": "uint256",
          "name": "tokenId",
          "type": "uint256"
        }
      ],
      "name": "safeTransferFrom",
      "outputs": [],
      "stateMutability": "nonpayable",
      "type": "function"
    },
    {
      "inputs": [
        {
          "internalType": "address",
          "name": "from",
          "type": "address"
        },
        {
          "internalType": "address",
          "name": "to",
          "type": "address"
        },
        {
          "internalType": "uint256",
          "name": "tokenId",
          "type": "uint256"
        },
        {
          "internalType": "bytes",
          "name": "_data",
          "type": "bytes"
        }
      ],
      "name": "safeTransferFrom",
      "outputs": [],
      "stateMutability": "nonpayable",
      "type": "function"
    },
    {
      "inputs": [
        {
          "internalType": "address",
          "name": "operator",
          "type": "address"
        },
        {
          "internalType": "bool",
          "name": "approved",
          "type": "bool"
        }
      ],
      "name": "setApprovalForAll",
      "outputs": [],
      "stateMutability": "nonpayable",
      "type": "function"
    },
    {
      "inputs": [],
      "name": "startTime",
      "outputs": [
        {
          "internalType": "uint256",
          "name": "",
          "type": "uint256"
        }
      ],
      "stateMutability": "view",
      "type": "function"
    },
    {
      "inputs": [
        {
          "internalType": "bytes4",
          "name": "interfaceId",
          "type": "bytes4"
        }
      ],
      "name": "supportsInterface",
      "outputs": [
        {
          "internalType": "bool",
          "name": "",
          "type": "bool"
        }
      ],
      "stateMutability": "view",
      "type": "function"
    },
    {
      "inputs": [],
      "name": "symbol",
      "outputs": [
        {
          "internalType": "string",
          "name": "",
          "type": "string"
        }
      ],
      "stateMutability": "view",
      "type": "function"
    },
    {
      "inputs": [
        {
          "internalType": "uint256",
          "name": "tokenId",
          "type": "uint256"
        }
      ],
      "name": "tokenURI",
      "outputs": [
        {
          "internalType": "string",
          "name": "",
          "type": "string"
        }
      ],
      "stateMutability": "view",
      "type": "function"
    },
    {
      "inputs": [],
      "name": "totalSupply",
      "outputs": [
        {
          "internalType": "uint256",
          "name": "",
          "type": "uint256"
        }
      ],
      "stateMutability": "view",
      "type": "function"
    },
    {
      "inputs": [
        {
          "internalType": "address",
          "name": "from",
          "type": "address"
        },
        {
          "internalType": "address",
          "name": "to",
          "type": "address"
        },
        {
          "internalType": "uint256",
          "name": "tokenId",
          "type": "uint256"
        }
      ],
      "name": "transferFrom",
      "outputs": [],
      "stateMutability": "nonpayable",
      "type": "function"
    }
  ],
  "transactionHash": "0x1aedd671492869de46aec479eef8bdc82434c1e4858c6f79ca31b7ad0c5590eb",
  "args": [],
  "numDeployments": 1,
  "solcInputHash": "a70b11d296289a4828de9a643fbdd085",
  "bytecode": "0x6101006040526059608081815290620025c060a03980516200002a9160099160209091019062000229565b506040518060e00160405280604051806040016040528060088152602001674e4654732061726560c01b815250815260200160405180604001604052806008815260200167115512081dda5b1b60c21b81525081526020016040518060400160405280601681526020017f426c6f636b636861696e20697320676f696e6720746f0000000000000000000081525081526020016040518060400160405280601681526020017f426974636f696e2077617320637265617465642062790000000000000000000081525081526020016040518060400160405280601381526020017f53617461736869204e616b616d6f746f206973000000000000000000000000008152508152602001604051806060016040528060398152602001620025876039913981526020016040518060400160405280601281526020017112481cda1bdd5b19081a185d99481cdbdb1960721b815250815250600a90600762000192929190620002b8565b50348015620001a057600080fd5b50604080518082018252601081526f4361726473416761696e73744e46547360801b60208083019182528351808501909452600384526221a0a760e91b908401528151919291620001f49160009162000229565b5080516200020a90600190602084019062000229565b5050600780546001600160a01b031916331790555042600655620003cf565b828054620002379062000392565b90600052602060002090601f0160209004810192826200025b5760008555620002a6565b82601f106200027657805160ff1916838001178555620002a6565b82800160010185558215620002a6579182015b82811115620002a657825182559160200191906001019062000289565b50620002b492915062000318565b5090565b8280548282559060005260206000209081019282156200030a579160200282015b828111156200030a5782518051620002f991849160209091019062000229565b5091602001919060010190620002d9565b50620002b49291506200032f565b5b80821115620002b4576000815560010162000319565b80821115620002b457600062000346828262000350565b506001016200032f565b5080546200035e9062000392565b6000825580601f106200036f575050565b601f0160209004906000526020600020908101906200038f919062000318565b50565b600181811c90821680620003a757607f821691505b60208210811415620003c957634e487b7160e01b600052602260045260246000fd5b50919050565b6121a880620003df6000396000f3fe608060405234801561001057600080fd5b50600436106101735760003560e01c806370a08231116100de578063b88d4fde11610097578063e985e9c511610071578063e985e9c51461030d578063ed35d7e514610349578063f0b952ba1461036c578063fbc564061461037f57600080fd5b8063b88d4fde146102d4578063c87b56dd146102e7578063d5f39488146102fa57600080fd5b806370a082311461028257806378e979251461029557806383ba6f5b1461029e57806395d89b41146102b1578063a22cb465146102b9578063a32bf597146102cc57600080fd5b806333c41a901161013057806333c41a901461021a5780633eaaf86b1461022d57806342842e0e14610236578063535ab507146102495780635c7a37e01461025c5780636352211e1461026f57600080fd5b806301ffc9a71461017857806306fdde03146101a0578063081812fc146101b5578063095ea7b3146101e057806318160ddd146101f557806323b872dd14610207575b600080fd5b61018b610186366004611a0d565b610392565b60405190151581526020015b60405180910390f35b6101a86103e4565b6040516101979190611a89565b6101c86101c3366004611a9c565b610476565b6040516001600160a01b039091168152602001610197565b6101f36101ee366004611ad1565b610503565b005b6008545b604051908152602001610197565b6101f3610215366004611afb565b610619565b61018b610228366004611a9c565b61064a565b6101f960085481565b6101f3610244366004611afb565b610655565b6101a8610257366004611a9c565b610670565b6101a861026a366004611a9c565b610744565b6101c861027d366004611a9c565b610787565b6101f9610290366004611b37565b6107fe565b6101f960065481565b61018b6102ac366004611a9c565b610885565b6101a8610897565b6101f36102c7366004611b52565b6108a6565b6101f96108b5565b6101f36102e2366004611c3a565b6108d8565b6101a86102f5366004611a9c565b610910565b6007546101c8906001600160a01b031681565b61018b61031b366004611ca2565b6001600160a01b03918216600090815260056020908152604080832093909416825291909152205460ff1690565b61035c610357366004611a9c565b610973565b6040516101979493929190611cd5565b6101a861037a366004611a9c565b610ab6565b6101f361038d366004611d1d565b610b62565b60006001600160e01b031982166380ac58cd60e01b14806103c357506001600160e01b03198216635b5e139f60e01b145b806103de57506301ffc9a760e01b6001600160e01b03198316145b92915050565b6060600080546103f390611d9f565b80601f016020809104026020016040519081016040528092919081815260200182805461041f90611d9f565b801561046c5780601f106104415761010080835404028352916020019161046c565b820191906000526020600020905b81548152906001019060200180831161044f57829003601f168201915b5050505050905090565b600061048182610e5b565b6104e75760405162461bcd60e51b815260206004820152602c60248201527f4552433732313a20617070726f76656420717565727920666f72206e6f6e657860448201526b34b9ba32b73a103a37b5b2b760a11b60648201526084015b60405180910390fd5b506000908152600460205260409020546001600160a01b031690565b600061050e82610787565b9050806001600160a01b0316836001600160a01b0316141561057c5760405162461bcd60e51b815260206004820152602160248201527f4552433732313a20617070726f76616c20746f2063757272656e74206f776e656044820152603960f91b60648201526084016104de565b336001600160a01b03821614806105985750610598813361031b565b61060a5760405162461bcd60e51b815260206004820152603860248201527f4552433732313a20617070726f76652063616c6c6572206973206e6f74206f7760448201527f6e6572206e6f7220617070726f76656420666f7220616c6c000000000000000060648201526084016104de565b6106148383610e78565b505050565b6106233382610ee6565b61063f5760405162461bcd60e51b81526004016104de90611dda565b610614838383610fd0565b60006103de82610e5b565b610614838383604051806020016040528060008152506108d8565b606061067b82610e5b565b6106975760405162461bcd60e51b81526004016104de90611e2b565b600a82815481106106aa576106aa611e6f565b9060005260206000200180546106bf90611d9f565b80601f01602080910402602001604051908101604052809291908181526020018280546106eb90611d9f565b80156107385780601f1061070d57610100808354040283529160200191610738565b820191906000526020600020905b81548152906001019060200180831161071b57829003601f168201915b50505050509050919050565b606061074f82610e5b565b61076b5760405162461bcd60e51b81526004016104de90611e2b565b6000828152600b6020526040902060020180546106bf90611d9f565b6000818152600260205260408120546001600160a01b0316806103de5760405162461bcd60e51b815260206004820152602960248201527f4552433732313a206f776e657220717565727920666f72206e6f6e657869737460448201526832b73a103a37b5b2b760b91b60648201526084016104de565b60006001600160a01b0382166108695760405162461bcd60e51b815260206004820152602a60248201527f4552433732313a2062616c616e636520717565727920666f7220746865207a65604482015269726f206164647265737360b01b60648201526084016104de565b506001600160a01b031660009081526003602052604090205490565b6000816108906108b5565b1192915050565b6060600180546103f390611d9f565b6108b133838361116c565b5050565b600062015180600654426108c99190611e9b565b6108d39190611eb2565b905090565b6108e23383610ee6565b6108fe5760405162461bcd60e51b81526004016104de90611dda565b61090a8484848461123b565b50505050565b606061091b82610e5b565b6109375760405162461bcd60e51b81526004016104de90611e2b565b600961094283610670565b61094b84610744565b60405160200161095d93929190611ef0565b6040516020818303038152906040529050919050565b600b60205260009081526040902080546001820180546001600160a01b03909216929161099f90611d9f565b80601f01602080910402602001604051908101604052809291908181526020018280546109cb90611d9f565b8015610a185780601f106109ed57610100808354040283529160200191610a18565b820191906000526020600020905b8154815290600101906020018083116109fb57829003601f168201915b505050505090806002018054610a2d90611d9f565b80601f0160208091040260200160405190810160405280929190818152602001828054610a5990611d9f565b8015610aa65780601f10610a7b57610100808354040283529160200191610aa6565b820191906000526020600020905b815481529060010190602001808311610a8957829003601f168201915b5050505050908060030154905084565b600a8181548110610ac657600080fd5b906000526020600020016000915090508054610ae190611d9f565b80601f0160208091040260200160405190810160405280929190818152602001828054610b0d90611d9f565b8015610b5a5780601f10610b2f57610100808354040283529160200191610b5a565b820191906000526020600020905b815481529060010190602001808311610b3d57829003601f168201915b505050505081565b610b6b84610885565b610bc35760405162461bcd60e51b8152602060048201526024808201527f4361726473416761696e73744e4654733a20526f756e64206973206e6f74206f6044820152637665722160e01b60648201526084016104de565b610bcc8461064a565b15610c315760405162461bcd60e51b815260206004820152602f60248201527f4361726473416761696e73744e4654733a20436172642068617320616c72656160448201526e6479206265656e206d696e7465642160881b60648201526084016104de565b610c3e338585858561126e565b610c965760405162461bcd60e51b8152602060048201526024808201527f4361726473416761696e73744e4654733a20496e76616c6964205369676e61746044820152637572652160e01b60648201526084016104de565b6040518060800160405280336001600160a01b03168152602001600a8681548110610cc357610cc3611e6f565b906000526020600020018054610cd890611d9f565b80601f0160208091040260200160405190810160405280929190818152602001828054610d0490611d9f565b8015610d515780601f10610d2657610100808354040283529160200191610d51565b820191906000526020600020905b815481529060010190602001808311610d3457829003601f168201915b5050509183525050602080820186905260409182018590526000878152600b825291909120825181546001600160a01b0319166001600160a01b039091161781558282015180519192610dac9260018501929091019061195e565b5060408201518051610dc891600284019160209091019061195e565b5060608201518160030155905050610de033856112f0565b60088054906000610df083611fa8565b9190505550336001600160a01b0316847fc3295fe1a1042636c875e5aa92cfad07ac77644c9db0d2361381ea7d08ce8e8c600a8781548110610e3457610e34611e6f565b9060005260206000200186604051610e4d929190611fc3565b60405180910390a350505050565b6000908152600260205260409020546001600160a01b0316151590565b600081815260046020526040902080546001600160a01b0319166001600160a01b0384169081179091558190610ead82610787565b6001600160a01b03167f8c5be1e5ebec7d5bd14f71427d1e84f3dd0314c0f7b2291e5b200ac8c7c3b92560405160405180910390a45050565b6000610ef182610e5b565b610f525760405162461bcd60e51b815260206004820152602c60248201527f4552433732313a206f70657261746f7220717565727920666f72206e6f6e657860448201526b34b9ba32b73a103a37b5b2b760a11b60648201526084016104de565b6000610f5d83610787565b9050806001600160a01b0316846001600160a01b03161480610fa457506001600160a01b0380821660009081526005602090815260408083209388168352929052205460ff165b80610fc85750836001600160a01b0316610fbd84610476565b6001600160a01b0316145b949350505050565b826001600160a01b0316610fe382610787565b6001600160a01b0316146110475760405162461bcd60e51b815260206004820152602560248201527f4552433732313a207472616e736665722066726f6d20696e636f72726563742060448201526437bbb732b960d91b60648201526084016104de565b6001600160a01b0382166110a95760405162461bcd60e51b8152602060048201526024808201527f4552433732313a207472616e7366657220746f20746865207a65726f206164646044820152637265737360e01b60648201526084016104de565b6110b4600082610e78565b6001600160a01b03831660009081526003602052604081208054600192906110dd908490611e9b565b90915550506001600160a01b038216600090815260036020526040812080546001929061110b90849061205c565b909155505060008181526002602052604080822080546001600160a01b0319166001600160a01b0386811691821790925591518493918716917fddf252ad1be2c89b69c2b068fc378daa952ba7f163c4a11628f55a4df523b3ef91a4505050565b816001600160a01b0316836001600160a01b031614156111ce5760405162461bcd60e51b815260206004820152601960248201527f4552433732313a20617070726f766520746f2063616c6c65720000000000000060448201526064016104de565b6001600160a01b03838116600081815260056020908152604080832094871680845294825291829020805460ff191686151590811790915591519182527f17307eab39ab6107e8899845ad3d59bd9653f200f220920489ca2b5937696c31910160405180910390a3505050565b611246848484610fd0565b6112528484848461130a565b61090a5760405162461bcd60e51b81526004016104de90612074565b6000808686868660405160200161128894939291906120c6565b60408051601f1981840301815291905280516020909101206007549091506112b8906001600160a01b0316611417565b6112ca6112c58285611462565b611417565b6112d48184611462565b6007546001600160a01b03918216911614979650505050505050565b6108b1828260405180602001604052806000815250611486565b60006001600160a01b0384163b1561140c57604051630a85bd0160e11b81526001600160a01b0385169063150b7a029061134e90339089908890889060040161210c565b602060405180830381600087803b15801561136857600080fd5b505af1925050508015611398575060408051601f3d908101601f191682019092526113959181019061213f565b60015b6113f2573d8080156113c6576040519150601f19603f3d011682016040523d82523d6000602084013e6113cb565b606091505b5080516113ea5760405162461bcd60e51b81526004016104de90612074565b805181602001fd5b6001600160e01b031916630a85bd0160e11b149050610fc8565b506001949350505050565b6040516001600160a01b038216602482015261145f9060440160408051601f198184030181529190526020810180516001600160e01b031663161765e160e11b1790526114b9565b50565b600080600061147185856114da565b9150915061147e8161154a565b509392505050565b6114908383611705565b61149d600084848461130a565b6106145760405162461bcd60e51b81526004016104de90612074565b80516a636f6e736f6c652e6c6f67602083016000808483855afa5050505050565b6000808251604114156115115760208301516040840151606085015160001a61150587828585611838565b94509450505050611543565b82516040141561153b5760208301516040840151611530868383611925565b935093505050611543565b506000905060025b9250929050565b600081600481111561155e5761155e61215c565b14156115675750565b600181600481111561157b5761157b61215c565b14156115c95760405162461bcd60e51b815260206004820152601860248201527f45434453413a20696e76616c6964207369676e6174757265000000000000000060448201526064016104de565b60028160048111156115dd576115dd61215c565b141561162b5760405162461bcd60e51b815260206004820152601f60248201527f45434453413a20696e76616c6964207369676e6174757265206c656e6774680060448201526064016104de565b600381600481111561163f5761163f61215c565b14156116985760405162461bcd60e51b815260206004820152602260248201527f45434453413a20696e76616c6964207369676e6174757265202773272076616c604482015261756560f01b60648201526084016104de565b60048160048111156116ac576116ac61215c565b141561145f5760405162461bcd60e51b815260206004820152602260248201527f45434453413a20696e76616c6964207369676e6174757265202776272076616c604482015261756560f01b60648201526084016104de565b6001600160a01b03821661175b5760405162461bcd60e51b815260206004820181905260248201527f4552433732313a206d696e7420746f20746865207a65726f206164647265737360448201526064016104de565b61176481610e5b565b156117b15760405162461bcd60e51b815260206004820152601c60248201527f4552433732313a20746f6b656e20616c7265616479206d696e7465640000000060448201526064016104de565b6001600160a01b03821660009081526003602052604081208054600192906117da90849061205c565b909155505060008181526002602052604080822080546001600160a01b0319166001600160a01b03861690811790915590518392907fddf252ad1be2c89b69c2b068fc378daa952ba7f163c4a11628f55a4df523b3ef908290a45050565b6000807f7fffffffffffffffffffffffffffffff5d576e7357a4501ddfe92f46681b20a083111561186f575060009050600361191c565b8460ff16601b1415801561188757508460ff16601c14155b15611898575060009050600461191c565b6040805160008082526020820180845289905260ff881692820192909252606081018690526080810185905260019060a0016020604051602081039080840390855afa1580156118ec573d6000803e3d6000fd5b5050604051601f1901519150506001600160a01b0381166119155760006001925092505061191c565b9150600090505b94509492505050565b6000806001600160ff1b0383168161194260ff86901c601b61205c565b905061195087828885611838565b935093505050935093915050565b82805461196a90611d9f565b90600052602060002090601f01602090048101928261198c57600085556119d2565b82601f106119a557805160ff19168380011785556119d2565b828001600101855582156119d2579182015b828111156119d25782518255916020019190600101906119b7565b506119de9291506119e2565b5090565b5b808211156119de57600081556001016119e3565b6001600160e01b03198116811461145f57600080fd5b600060208284031215611a1f57600080fd5b8135611a2a816119f7565b9392505050565b60005b83811015611a4c578181015183820152602001611a34565b8381111561090a5750506000910152565b60008151808452611a75816020860160208601611a31565b601f01601f19169290920160200192915050565b602081526000611a2a6020830184611a5d565b600060208284031215611aae57600080fd5b5035919050565b80356001600160a01b0381168114611acc57600080fd5b919050565b60008060408385031215611ae457600080fd5b611aed83611ab5565b946020939093013593505050565b600080600060608486031215611b1057600080fd5b611b1984611ab5565b9250611b2760208501611ab5565b9150604084013590509250925092565b600060208284031215611b4957600080fd5b611a2a82611ab5565b60008060408385031215611b6557600080fd5b611b6e83611ab5565b915060208301358015158114611b8357600080fd5b809150509250929050565b634e487b7160e01b600052604160045260246000fd5b600067ffffffffffffffff80841115611bbf57611bbf611b8e565b604051601f8501601f19908116603f01168101908282118183101715611be757611be7611b8e565b81604052809350858152868686011115611c0057600080fd5b858560208301376000602087830101525050509392505050565b600082601f830112611c2b57600080fd5b611a2a83833560208501611ba4565b60008060008060808587031215611c5057600080fd5b611c5985611ab5565b9350611c6760208601611ab5565b925060408501359150606085013567ffffffffffffffff811115611c8a57600080fd5b611c9687828801611c1a565b91505092959194509250565b60008060408385031215611cb557600080fd5b611cbe83611ab5565b9150611ccc60208401611ab5565b90509250929050565b6001600160a01b0385168152608060208201819052600090611cf990830186611a5d565b8281036040840152611d0b8186611a5d565b91505082606083015295945050505050565b60008060008060808587031215611d3357600080fd5b84359350602085013567ffffffffffffffff80821115611d5257600080fd5b818701915087601f830112611d6657600080fd5b611d7588833560208501611ba4565b9450604087013593506060870135915080821115611d9257600080fd5b50611c9687828801611c1a565b600181811c90821680611db357607f821691505b60208210811415611dd457634e487b7160e01b600052602260045260246000fd5b50919050565b60208082526031908201527f4552433732313a207472616e736665722063616c6c6572206973206e6f74206f6040820152701ddb995c881b9bdc88185c1c1c9bdd9959607a1b606082015260800190565b60208082526024908201527f4552433732313a20517565727920666f72206e6f6e2d6578697374656e74207460408201526337b5b2b760e11b606082015260800190565b634e487b7160e01b600052603260045260246000fd5b634e487b7160e01b600052601160045260246000fd5b600082821015611ead57611ead611e85565b500390565b600082611ecf57634e487b7160e01b600052601260045260246000fd5b500490565b60008151611ee6818560208601611a31565b9290920192915050565b6000808554611efe81611d9f565b60018281168015611f165760018114611f2757611f56565b60ff19841687528287019450611f56565b8960005260208060002060005b85811015611f4d5781548a820152908401908201611f34565b50505082870194505b50505050653f626173653d60d01b81528451611f79816006840160208901611a31565b6926726573706f6e73653d60b01b60069290910191820152611f9e6010820185611ed4565b9695505050505050565b6000600019821415611fbc57611fbc611e85565b5060010190565b604081526000808454611fd581611d9f565b8060408601526060600180841660008114611ff7576001811461200b5761203c565b60ff1985168884015260808801955061203c565b8960005260208060002060005b868110156120335781548b8201870152908401908201612018565b8a018501975050505b505050505082810360208401526120538185611a5d565b95945050505050565b6000821982111561206f5761206f611e85565b500190565b60208082526032908201527f4552433732313a207472616e7366657220746f206e6f6e20455243373231526560408201527131b2b4bb32b91034b6b83632b6b2b73a32b960711b606082015260800190565b6bffffffffffffffffffffffff198560601b168152836014820152600083516120f6816034850160208801611a31565b6034920191820192909252605401949350505050565b6001600160a01b0385811682528416602082015260408101839052608060608201819052600090611f9e90830184611a5d565b60006020828403121561215157600080fd5b8151611a2a816119f7565b634e487b7160e01b600052602160045260246000fdfea26469706673582212205800fc0627012a1ccee49b37091444f6147e08bcb948b204ee9b2cf711d77a1a64736f6c63430008090033496e7374656164206f6620627579696e67204e4654732c20492073686f756c642068617665492073686f756c64206861766520626f7567687468747470733a2f2f6261666b726569636970667137773377626972696b3365326a71747537797773726c326c78636f6d746967337033637a776e72353533756c36616d2e697066732e6e667473746f726167652e6c696e6b2f",
  "devdoc": {
    "kind": "dev",
    "methods": {
      "approve(address,uint256)": {
        "details": "See {IERC721-approve}."
      },
      "balanceOf(address)": {
        "details": "See {IERC721-balanceOf}."
      },
      "getApproved(uint256)": {
        "details": "See {IERC721-getApproved}."
      },
      "getBasePhrase(uint256)": {
        "details": "Get the base phrase for a tokenId"
      },
      "getCurrentRound()": {
        "details": "Get the current round"
      },
      "getWinningResponse(uint256)": {
        "details": "Get the winning phrase for a tokenId"
      },
      "isApprovedForAll(address,address)": {
        "details": "See {IERC721-isApprovedForAll}."
      },
      "isAvailableForMint(uint256)": {
        "details": "Check if a tokenId is available for minting"
      },
      "isMinted(uint256)": {
        "details": "Check if a tokenId has already been minted"
      },
      "mint(uint256,string,uint256,bytes)": {
        "details": "Winner should mint the card",
        "params": {
          "response": "Response to the base phrase",
          "tokenId": "Token Id to Mint"
        }
      },
      "name()": {
        "details": "See {IERC721Metadata-name}."
      },
      "ownerOf(uint256)": {
        "details": "See {IERC721-ownerOf}."
      },
      "safeTransferFrom(address,address,uint256)": {
        "details": "See {IERC721-safeTransferFrom}."
      },
      "safeTransferFrom(address,address,uint256,bytes)": {
        "details": "See {IERC721-safeTransferFrom}."
      },
      "setApprovalForAll(address,bool)": {
        "details": "See {IERC721-setApprovalForAll}."
      },
      "supportsInterface(bytes4)": {
        "details": "See {IERC165-supportsInterface}."
      },
      "symbol()": {
        "details": "See {IERC721Metadata-symbol}."
      },
      "tokenURI(uint256)": {
        "details": "See {IERC721Metadata-tokenURI}.gets baseURI from contract state variable"
      },
      "transferFrom(address,address,uint256)": {
        "details": "See {IERC721-transferFrom}."
      }
    },
    "version": 1
  },
  "userdoc": {
    "kind": "user",
    "methods": {},
    "notice": "How the game works: 1. Every day, a new base phrase is shown. 2. Users may come up with new creative phrases that are related to the base phrase. 3. Users may vote on the creative phrases. 4. The winner is the user who has the most votes. 5. The winner(s) phrase(s) are shown to the public. Winning Condition: 1. Response for the base phrase should have the highest number of votes. 2. If there is a tie, the first person who mints the NFT will get the rights to mint the card. Anti Bot Measures: 1. 1 user can only vote once. 2. (TODO) User must own a proof of humanity to vote. 3. (TODO) User must own a proof of humanity to respond Other Notes: Responses and votes are stored off-chain to save compute cost",
    "version": 1
  },
  "storageLayout": {
    "storage": [
      {
        "astId": 25,
        "contract": "contracts/CardsAgainstNFTS.sol:CardsAgainstNFTS",
        "label": "_name",
        "offset": 0,
        "slot": "0",
        "type": "t_string_storage"
      },
      {
        "astId": 27,
        "contract": "contracts/CardsAgainstNFTS.sol:CardsAgainstNFTS",
        "label": "_symbol",
        "offset": 0,
        "slot": "1",
        "type": "t_string_storage"
      },
      {
        "astId": 31,
        "contract": "contracts/CardsAgainstNFTS.sol:CardsAgainstNFTS",
        "label": "_owners",
        "offset": 0,
        "slot": "2",
        "type": "t_mapping(t_uint256,t_address)"
      },
      {
        "astId": 35,
        "contract": "contracts/CardsAgainstNFTS.sol:CardsAgainstNFTS",
        "label": "_balances",
        "offset": 0,
        "slot": "3",
        "type": "t_mapping(t_address,t_uint256)"
      },
      {
        "astId": 39,
        "contract": "contracts/CardsAgainstNFTS.sol:CardsAgainstNFTS",
        "label": "_tokenApprovals",
        "offset": 0,
        "slot": "4",
        "type": "t_mapping(t_uint256,t_address)"
      },
      {
        "astId": 45,
        "contract": "contracts/CardsAgainstNFTS.sol:CardsAgainstNFTS",
        "label": "_operatorApprovals",
        "offset": 0,
        "slot": "5",
        "type": "t_mapping(t_address,t_mapping(t_address,t_bool))"
      },
      {
        "astId": 2008,
        "contract": "contracts/CardsAgainstNFTS.sol:CardsAgainstNFTS",
        "label": "startTime",
        "offset": 0,
        "slot": "6",
        "type": "t_uint256"
      },
      {
        "astId": 2010,
        "contract": "contracts/CardsAgainstNFTS.sol:CardsAgainstNFTS",
        "label": "deployer",
        "offset": 0,
        "slot": "7",
        "type": "t_address"
      },
      {
        "astId": 2012,
        "contract": "contracts/CardsAgainstNFTS.sol:CardsAgainstNFTS",
        "label": "_totalSupply",
        "offset": 0,
        "slot": "8",
        "type": "t_uint256"
      },
      {
        "astId": 2015,
        "contract": "contracts/CardsAgainstNFTS.sol:CardsAgainstNFTS",
        "label": "baseURI",
        "offset": 0,
        "slot": "9",
        "type": "t_string_storage"
      },
      {
        "astId": 2026,
        "contract": "contracts/CardsAgainstNFTS.sol:CardsAgainstNFTS",
        "label": "basesPhrases",
        "offset": 0,
        "slot": "10",
        "type": "t_array(t_string_storage)dyn_storage"
      },
      {
        "astId": 2050,
        "contract": "contracts/CardsAgainstNFTS.sol:CardsAgainstNFTS",
        "label": "responses",
        "offset": 0,
        "slot": "11",
        "type": "t_mapping(t_uint256,t_struct(Response)2035_storage)"
      }
    ],
    "types": {
      "t_address": {
        "encoding": "inplace",
        "label": "address",
        "numberOfBytes": "20"
      },
      "t_array(t_string_storage)dyn_storage": {
        "base": "t_string_storage",
        "encoding": "dynamic_array",
        "label": "string[]",
        "numberOfBytes": "32"
      },
      "t_bool": {
        "encoding": "inplace",
        "label": "bool",
        "numberOfBytes": "1"
      },
      "t_mapping(t_address,t_bool)": {
        "encoding": "mapping",
        "key": "t_address",
        "label": "mapping(address => bool)",
        "numberOfBytes": "32",
        "value": "t_bool"
      },
      "t_mapping(t_address,t_mapping(t_address,t_bool))": {
        "encoding": "mapping",
        "key": "t_address",
        "label": "mapping(address => mapping(address => bool))",
        "numberOfBytes": "32",
        "value": "t_mapping(t_address,t_bool)"
      },
      "t_mapping(t_address,t_uint256)": {
        "encoding": "mapping",
        "key": "t_address",
        "label": "mapping(address => uint256)",
        "numberOfBytes": "32",
        "value": "t_uint256"
      },
      "t_mapping(t_uint256,t_address)": {
        "encoding": "mapping",
        "key": "t_uint256",
        "label": "mapping(uint256 => address)",
        "numberOfBytes": "32",
        "value": "t_address"
      },
      "t_mapping(t_uint256,t_struct(Response)2035_storage)": {
        "encoding": "mapping",
        "key": "t_uint256",
        "label": "mapping(uint256 => struct CardsAgainstNFTS.Response)",
        "numberOfBytes": "32",
        "value": "t_struct(Response)2035_storage"
      },
      "t_string_storage": {
        "encoding": "bytes",
        "label": "string",
        "numberOfBytes": "32"
      },
      "t_struct(Response)2035_storage": {
        "encoding": "inplace",
        "label": "struct CardsAgainstNFTS.Response",
        "members": [
          {
            "astId": 2028,
            "contract": "contracts/CardsAgainstNFTS.sol:CardsAgainstNFTS",
            "label": "winner",
            "offset": 0,
            "slot": "0",
            "type": "t_address"
          },
          {
            "astId": 2030,
            "contract": "contracts/CardsAgainstNFTS.sol:CardsAgainstNFTS",
            "label": "basePhrase",
            "offset": 0,
            "slot": "1",
            "type": "t_string_storage"
          },
          {
            "astId": 2032,
            "contract": "contracts/CardsAgainstNFTS.sol:CardsAgainstNFTS",
            "label": "response",
            "offset": 0,
            "slot": "2",
            "type": "t_string_storage"
          },
          {
            "astId": 2034,
            "contract": "contracts/CardsAgainstNFTS.sol:CardsAgainstNFTS",
            "label": "votes",
            "offset": 0,
            "slot": "3",
            "type": "t_uint256"
          }
        ],
        "numberOfBytes": "128"
      },
      "t_uint256": {
        "encoding": "inplace",
        "label": "uint256",
        "numberOfBytes": "32"
      }
    }
  }
}